:100000000C945E000C9486000C9486000C94860080
:100010000C9486000C9486000C9486000C9471124B
:100020000C9486000C9486000C9486000C94860038
:100030000C9486000C9486000C9486000C94860028
:100040000C94DF120C9486000C9486000C948600AD
:100050000C9486000C9486000C9486000C94860008
:100060000C9486000C948600020000000800020137
:10007000000003040700000000000000000102046B
:10008000081020408001020408102001020408101A
:100090002004040404040404040202020202020311
:1000A000030303030300000000250028002B0000C9
:1000B000000000240027002A0000940111241FBE24
:1000C000CFEFD8E0DEBFCDBF11E0A0E0B1E0E8E8BF
:1000D000FEE202C005900D92A830B107D9F72BE0DF
:1000E000A8E0B1E001C01D92AE3EB207E1F710E01A
:1000F000CEE5D0E004C02197FE010E94A614CD35C4
:10010000D107C9F70E94CE120C9442170C9400003C
:100110008F929F92AF92BF92CF92DF92EF92FF9217
:100120000F931F93CF93C62F49015A01670178019E
:10013000FC016081718120E030E0A9018C2F0E94D8
:10014000BA0FA701960160E070E080E792E40E9498
:10015000BB1420E030E04AE754E40E94B415A50146
:1001600094010E94B4150E942D150E944E138C2FED
:10017000CF911F910F91FF90EF90DF90CF90BF90A4
:10018000AF909F908F900C945C122F923F924F9261
:100190005F926F927F928F929F92AF92BF92CF9217
:1001A000DF92EF92FF920F931F93CF93DF9300D0D4
:1001B00000D0CDB7DEB79A8389831B0149015A016C
:1001C0001C821B82C12CD12CA981BA8112968D91DF
:1001D0009C911397C816D906B4F5ED91FC918B81CB
:1001E0009C81E80FF91F4180528063807480808178
:1001F00081110AC085017401A3019201B1018581B9
:1002000096810E94880016C0A501940160E070E00C
:1002100080E792E40E94BB1420E030E04AE754E417
:100220000E94B415A30192010E94B4150E942D15DD
:100230000E944E139FEFC91AD90AAB81BC81179651
:10024000BC83AB83C1CF0F900F900F900F90DF91C5
:10025000CF911F910F91FF90EF90DF90CF90BF90C3
:10026000AF909F908F907F906F905F904F903F9056
:100270002F9008950F931F93CF93DF93EC01890183
:10028000188249835A836B837C8382E090E00E94CA
:10029000DD12FC01118300839E838D83DF91CF915A
:1002A0001F910F9108958F929F92AF92BF92EF92FC
:1002B000FF920F931F93CF93DF937C014A015B0161
:1002C000C0E0D0E000E010E0F701828193810817E0
:1002D000190774F46481758180819181A50194016D
:1002E0008C0F9D1F0E94C5000F5F1F4F2496ECCFFF
:1002F000DF91CF911F910F91FF90EF90BF90AF9042
:100300009F908F90089561E088E00E94EE134091E5
:100310003A0150913B0160913C0170913D018CE1AB
:1003200091E00C94530108958F929F92AF92BF92E7
:10033000CF92DF92EF92FF920F931F93CF9329EB0F
:1003400030E040E050E062E873E483EB95E00E9427
:100350003A012FEA30E040E050E062E873E48AEBD3
:1003600095E00E943A012CE930E040E050E062E87C
:1003700073E481EC95E00E943A012BE830E040E024
:1003800050E062E873E488EC95E00E943A012CE9C1
:1003900030E040E050E062E873E48FEC95E00E94CA
:1003A0003A0125E730E040E050E062E873E486ED92
:1003B00095E00E943A0123E830E040E050E062E836
:1003C00073E48DED95E00E943A0103EB15E0C1E086
:1003D000F801C1ABC12CD12C82E8E82E83E4F82EC1
:1003E000C2AAD3AAE4AAF5AA17AA16AA28E630E058
:1003F000B701A6018BEE95E00E943A01F801C7AF64
:10040000C092F305D092F405E092F505F092F6055E
:100410001092F8051092F7052CE930E0B701A6011B
:1004200089EF95E00E943A012FEA30E0B701A6017A
:1004300080E096E00E943A0129EB30E0B701A60186
:1004400087E096E00E943A01C0930E06C0920F0624
:10045000D0921006E0921106F09212061092140645
:100460001092130620ED30E0B701A60185E196E079
:100470000E943A01C0931C06C0921D06D0921E062F
:10048000E0921F06F092200610922206109221069A
:1004900025E131E0B701A60183E296E00E943A012E
:1004A000C0932A06C0922B06D0922C06E0922D060D
:1004B000F0922E061092300610922F0629EE30E0B0
:1004C00040E050E463EB74E481E396E00E943A017B
:1004D000C0933806812C912C92E0A92E93E4B92E7A
:1004E0008092390690923A06A0923B06B0923C0662
:1004F00010923E0610923D0629EB30E0B701A601AE
:100500008FE396E00E943A012FEA30E0B701A6019E
:1005100086E496E00E943A012CE930E0B701A6019A
:100520008DE496E00E943A012BE830E0B701A60185
:1005300084E596E00E943A012CE930E0B701A6017B
:100540008BE596E00E943A0125E730E0B701A6016D
:1005500082E696E00E943A0123E830E0B701A60166
:1005600089E696E00E943A01C0937006C092710637
:10057000D0927206E0927306F0927406109276069C
:100580001092750628E630E0B701A60187E796E0ED
:100590000E943A01C0937E06C0927F06D0928006E8
:1005A000E0928106F09282061092840610928306F1
:1005B0002EE430E0B701A60185E896E00E943A01FA
:1005C00027E530E0B701A6018CE896E00E943A01E9
:1005D0002DE530E0B701A60183E996E00E943A01DB
:1005E000C0939A06C0929B06D0929C06E0929D060C
:1005F000F0929E061092A00610929F0627E530E02A
:10060000B701A60181EA96E00E943A01C093A806CC
:10061000C092A906D092AA06E092AB06F092AC0670
:100620001092AE061092AD0625E430E0B701A601A7
:100630008FEA96E00E943A01C093B606C092B706D0
:10064000D092B806E092B906F092BA061092BC06B3
:100650001092BB062EE430E040E050EA63EC74E414
:100660008DEB96E00E943A0129EB30E0B701A6013C
:1006700084EC96E00E943A012FEA30E0B701A6012F
:100680008BEC96E00E943A012CE930E0B701A6011C
:1006900082ED96E00E943A012BE830E0B701A60116
:1006A00089ED96E00E943A012CE930E0B701A601FD
:1006B00080EE96E00E943A0125E730E0B701A601FE
:1006C00087EE96E00E943A0123E830E0B701A601E8
:1006D0008EEE96E00E943A01C093F506C092F606AF
:1006E000D092F706E092F806F092F9061092FB0617
:1006F0001092FA0628E630E0B701A6018CEF96E0EA
:100700000E943A01C0930307C0920407D0920507E4
:10071000E0920607F0920707109209071092080767
:100720002CE930E0B701A6018AE097E00E943A0187
:100730002FEA30E0B701A60181E197E00E943A017B
:1007400029EB30E0B701A60188E197E00E943A0169
:10075000C0931F07C0922007D0922107E092220782
:10076000F0922307109225071092240720ED30E025
:10077000B701A60186E297E00E943A01C0932D07D7
:10078000C0922E07D0922F07E0923007F0923107E7
:10079000109233071092320725E131E0B701A6012C
:1007A00084E397E00E943A01C0933B07C0923C0764
:1007B000D0923D07E0923E07F0923F07109241072A
:1007C0001092400729EE30E040E050E463EB74E41F
:1007D00082E497E00E943A01C093490780924A0759
:1007E00090924B07A0924C07B0924D0710924F0782
:1007F00010924E0729EB30E0B701A60180E597E0A3
:100800000E943A012FEA30E0B701A60187E597E0A0
:100810000E943A012CE930E0B701A6018EE597E08D
:100820000E943A012BE830E0B701A60185E697E087
:100830000E943A012CE930E0B701A6018CE697E06E
:100840000E943A0125E730E0B701A60183E797E06F
:100850000E943A0123E830E0B701A6018AE797E059
:100860000E943A01C0938107C0928207D092830709
:10087000E0928407F092850710928707109286070E
:1008800028E630E0B701A60188E897E00E943A0127
:10089000C0938F07C0929007D0929107E092920781
:1008A000F092930710929507109294072EE430E08F
:1008B000B701A60186E997E00E943A0127E530E0FA
:1008C000B701A6018DE997E00E943A012DE530E0DD
:1008D000B701A60184EA97E00E943A01C093AB07F2
:1008E000C092AC07D092AD07E092AE07F092AF078E
:1008F0001092B1071092B00727E530E0B701A601CA
:1009000082EB97E00E943A01C093B907C092BA0700
:10091000D092BB07E092BC07F092BD071092BF07D0
:100920001092BE0725E430E0B701A60180EC97E005
:100930000E943A01C093C707C092C807D092C90766
:10094000E092CA07F092CB071092CD071092CC0725
:100950002EE430E040E050EA63EC74E48EEC97E083
:100960000E943A0125EA30E0B701A60185ED97E043
:100970000E943A0120ED30E0B701A6018CED97E02E
:100980000E943A012CE930E0B701A60183EE97E01E
:100990000E943A0129EB30E0B701A6018AEE97E008
:1009A0000E943A012BE830E0B701A60181EF97E001
:1009B0000E943A0125EA30E0B701A60188EF97E0EE
:1009C0000E943A012CE930E0B701A6018FEF97E0D1
:1009D0000E943A012BE730E0B701A60186E098E0DB
:1009E0000E943A0125E730E0B701A6018DE098E0CA
:1009F0000E943A012BE830E0B701A60184E198E0BB
:100A00000E943A012BE730E0B701A6018BE198E0A4
:100A10000E943A0125EA30E0B701A60182E298E09F
:100A20000E943A0125E730E0B701A60189E298E08B
:100A30000E943A012CE930E0B701A60180E398E07A
:100A40000E943A01C0933708C0923808D092390802
:100A5000E0923A08F0923B0810923D0810923C0850
:100A600025E730E0B701A6018EE398E00E943A0145
:100A70002DE530E0B701A60185E498E00E943A0137
:100A8000C0934C08C0924D08D0924E08E0924F0897
:100A9000F0925008109252081092510825E730E069
:100AA000B701A60183E598E00E943A012DE530E008
:100AB000B701A6018AE598E00E943A0125E730E0F7
:100AC000B701A60181E698E00E943A012CE930E0E6
:100AD000B701A60188E698E00E943A0125EA30E0D5
:100AE000B701A6018FE698E00E943A0120ED30E0C0
:100AF000B701A60186E798E00E943A012CE930E0B0
:100B0000B701A6018DE798E00E943A0129EB30E099
:100B1000B701A60184E898E00E943A012BE830E092
:100B2000B701A6018BE898E00E943A0125EA30E07F
:100B3000B701A60182E998E00E943A012BE730E074
:100B4000B701A60189E998E00E943A012CE930E05A
:100B5000B701A60180EA98E00E943A0125E730E05B
:100B6000B701A60187EA98E00E943A012BE830E03D
:100B7000B701A6018EEA98E00E943A012BE730E027
:100B8000B701A60185EB98E00E943A0125EA30E022
:100B9000B701A6018CEB98E00E943A0125E730E00E
:100BA00040E050E464E674E483EC98E00E943A018B
:100BB0002CE930E040E050E464E674E48AEC98E02C
:100BC0000E943A01C093D1088092D2089092D30833
:100BD000A092D408B092D5081092D7081092D608E7
:100BE0002EE430E040E050E462E074E488ED98E008
:100BF0000E943A0128E630E0B701A6018FED98E0A7
:100C00000E943A012BE830E0B701A60186EE98E099
:100C10000E943A0125E730E0B701A6018DEE98E089
:100C20000E943A0123E830E0B701A60184EF98E082
:100C30000E943A0128E630E0B701A6018BEF98E068
:100C40000E943A0125E730E0B701A60182E099E071
:100C50000E943A012DE530E0B701A60189E099E054
:100C60000E943A0128E630E0B701A60180E199E050
:100C70000E943A0127E530E0B701A60187E199E03B
:100C80000E943A0125E730E0B701A6018EE199E024
:100C90000E943A012DE530E0B701A60185E299E016
:100CA0000E943A0128E630E0B701A6018CE299E003
:100CB0000E943A0123E830E0B701A60183E399E0FE
:100CC0000E943A012DE530E0B701A6018AE399E0E0
:100CD0000E943A0125E730E0B701A60181E499E0DE
:100CE0000E943A01C0934809C0924909D0924A092A
:100CF000E0924B09F0924C0910924E0910924D0966
:100D000027E330E0B701A6018FE499E00E943A01A1
:100D10002EE430E0B701A60186E599E00E943A0191
:100D2000C0935D09C0925E09D0925F09E0926009AC
:100D3000F092610910926309109262092EE430E08A
:100D4000B701A60184E699E00E943A0127E330E06A
:100D5000B701A6018BE699E00E943A0127E530E051
:100D6000B701A60182E799E00E943A0125E430E04C
:100D7000B701A60189E799E00E943A012DE530E02C
:100D8000B701A60180E899E00E943A012EE430E024
:100D9000B701A60187E899E00E943A01C0938E0945
:100DA000C0928F09D0929009E0929109F092920935
:100DB00010929409109293092EE430E0B701A60135
:100DC00085E999E00E943A0125E730E0B701A601E4
:100DD0008CE999E00E943A01C093A309C092A4094A
:100DE000D092A509E092A609F092A7091092A9094C
:100DF0001092A8092EE430E0B701A6018AEA99E032
:100E00000E943A012CE930E0B701A60181EB99E09C
:100E10000E943A01C093B809C092B909D092BA09A8
:100E2000E092BB09F092BC091092BE091092BD0974
:100E300027E530E040E050E463EB74E48FEB99E0A9
:100E40000E943A0123E930E040E050E463EB74E4AF
:100E500086EC99E00E943A0123E930E0B701A6014F
:100E60008DEC99E00E943A01C093D40980E090E0B3
:100E7000A3EAB4E48093D5099093D609A093D70947
:100E8000B093D8091092DA091092D90925EA30E016
:100E9000B701A6018BED99E00E943A0120ED30E008
:100EA000B701A60182EE99E00E943A012CE930E0F8
:100EB000B701A60189EE99E00E943A0129EB30E0E2
:100EC000B701A60180EF99E00E943A012BE830E0DB
:100ED000B701A60187EF99E00E943A0125EA30E0C8
:100EE000B701A6018EEF99E00E943A012CE930E0AB
:100EF000B701A60185E09AE00E943A012BE730E0B5
:100F0000B701A6018CE09AE00E943A0125E730E0A3
:100F1000B701A60183E19AE00E943A012BE830E094
:100F2000B701A6018AE19AE00E943A012BE730E07E
:100F3000B701A60181E29AE00E943A0125EA30E079
:100F4000B701A60188E29AE00E943A0125E730E065
:100F5000B701A6018FE29AE00E943A012CE930E045
:100F6000B701A60186E39AE00E943A01C0933D0AC8
:100F7000C0923E0AD0923F0AE092400AF092410AA3
:100F80001092430A1092420A25E730E0B701A60109
:100F900084E49AE00E943A012DE530E0B701A60111
:100FA0008BE49AE00E943A01C093520AC092530A1D
:100FB000D092540AE092550AF092560A1092580ABA
:100FC0001092570A25E730E0B701A60189E59AE0BB
:100FD0000E943A012DE530E0B701A60180E69AE0D3
:100FE0000E943A0125E730E0B701A60187E69AE0C2
:100FF0000E943A012CE930E0B701A6018EE69AE0A2
:101000000E943A0125EA30E0B701A60185E79AE09F
:101010000E943A0120ED30E0B701A6018CE79AE08A
:101020000E943A012CE930E0B701A60183E89AE07A
:101030000E943A0129EB30E0B701A6018AE89AE064
:101040000E943A012BE830E0B701A60181E99AE05D
:101050000E943A0125EA30E0B701A60188E99AE04A
:101060000E943A012BE730E0B701A6018FE99AE030
:101070000E943A012CE930E0B701A60186EA9AE025
:101080000E943A0125E730E0B701A6018DEA9AE017
:101090000E943A012BE830E0B701A60184EB9AE008
:1010A0000E943A012BE730E0B701A6018BEB9AE0F2
:1010B0000E943A0125EA30E0B701A60182EC9AE0ED
:1010C0000E943A0125E730E040E050E464E674E431
:1010D00089EC9AE00E943A012CE930E040E050E4CB
:1010E00064E674E480ED9AE00E943A01C093D70A66
:1010F0008092D80A9092D90AA092DA0AB092DB0ABA
:101100001092DD0A1092DC0A2EE430E040E050E458
:1011100062E074E48EED9AE00E943A0128E630E045
:10112000B701A60185EE9AE00E943A0125E730E07A
:10113000B701A6018CEE9AE00E943A012BE830E05C
:10114000B701A60183EF9AE00E943A0128E630E059
:10115000B701A6018AEF9AE00E943A0123E830E045
:10116000B701A60181E09BE00E943A012DE530E045
:10117000B701A60188E09BE00E943A0125E730E034
:10118000B701A6018FE09BE00E943A0128E630E01B
:10119000B701A60186E19BE00E943A0127E530E015
:1011A000B701A6018DE19BE00E943A012DE530E0F8
:1011B000B701A60184E29BE00E943A0125E730E0F6
:1011C000B701A6018BE29BE00E943A0128E630E0DD
:1011D000B701A60182E39BE00E943A0123E830E0D8
:1011E000B701A60189E39BE00E943A0125E730E0C0
:1011F000B701A60180E49BE00E943A012DE530E0B2
:10120000B701A60187E49BE00E943A0111E0C09378
:101210004E0BC0924F0BD092500BE092510BF092BC
:10122000520B1092540B1092530B2EE430E0B70186
:10123000A60185E59BE00E943A01C0935C0BC09239
:101240005D0BD0925E0BE0925F0BF092600B109200
:10125000620B1092610B2EE430E0B701A60183E629
:101260009BE00E943A0127E330E0B701A6018AE63D
:101270009BE00E943A0127E530E0B701A60181E733
:101280009BE00E943A0125E430E0B701A60188E71F
:101290009BE00E943A012EE430E0B701A6018FE7FF
:1012A0009BE00E943A012DE530E0B701A60186E8F7
:1012B0009BE00E943A01C0938D0BC0928E0BD0929E
:1012C0008F0BE092900BF092910B1092930B109277
:1012D000920B25E430E0B701A60184E99BE00E946F
:1012E0003A0127E530E0B701A6018BE99BE00E94B7
:1012F0003A01C093A20BC092A30BD092A40BE09230
:10130000A50BF092A60B1092A80B1092A70B21E34D
:1013100030E0B701A60189EA9BE00E943A0125E48A
:1013200030E0B701A60180EB9BE00E943A01C09338
:10133000B70BC092B80BD092B90BE092BA0BF092F7
:10134000BB0B1092BD0B1092BC0B27E330E040E0CA
:1013500050E463EB74E48EEB9BE00E943A012EE4D0
:1013600030E040E050E463EB74E485EC9BE00E94E5
:101370003A0121E330E0B701A6018EE391E00E943B
:101380003A0127E530E0B701A60185E491E00E942B
:101390003A012DE530E0B701A6018CE491E00E940E
:1013A0003A0128E630E0B701A60183E591E00E940A
:1013B0003A0125E730E0B701A6018AE591E00E94F5
:1013C0003A0127E330E0B701A60181E691E00E94EF
:1013D0003A0121E330E0B701A60188E691E00E94DE
:1013E0003A0128E630E0B701A6018FE691E00E94BD
:1013F0003A0123E830E0B701A60186E791E00E94B8
:101400003A0128E630E0B701A6018DE791E00E949D
:101410003A0123E830E0B701A60184E891E00E9498
:101420003A0128E630E0B701A6018BE891E00E947E
:101430003A0121E330E0B701A60182E991E00E9480
:101440003A012EE430E0B701A60189E991E00E945B
:101450003A0127E530E0B701A60180EA91E00E9459
:101460003A012DE530E0B701A60187EA91E00E943C
:101470003A0128E630E0B701A6018EEA91E00E9429
:101480003A0127E530E0B701A60185EB91E00E9423
:101490003A012DE530E0B701A6018CEB91E00E9406
:1014A0003A0127E530E0B701A60183EC91E00E9404
:1014B0003A012EE430E0B701A6018AEC91E00E94E7
:1014C0003A0125E430E0B701A60181ED91E00E94E8
:1014D0003A012EE430E0B701A60188ED91E00E94C8
:1014E0003A0127E330E0B701A6018FED91E00E94B9
:1014F0003A0121E330E0B701A60186EE91E00E94B7
:101500003A012EE430E0B701A6018DEE91E00E9491
:101510003A012DE530E0B701A60184EF91E00E9489
:101520003A0128E630E0B701A6018BEF91E00E9476
:101530003A0125E730E0B701A60182E092E00E947F
:101540003A012DE530E0B701A60189E092E00E9462
:101550003A0121E330E0B701A60180E192E00E9468
:101560003A012EE330E0B701A60187E192E00E9444
:101570003A012EE430E0B701A6018EE192E00E942C
:101580003A012DE530E0B701A60185E292E00E9424
:101590003A0125E730E0B701A6018CE292E00E9413
:1015A0003A0128E630E0B701A60183E392E00E9409
:1015B0003A0121E330E0B701A6018AE392E00E94FC
:1015C0003A012EE430E0B701A60181E492E00E94E6
:1015D0003A0128E630E0B701A60188E492E00E94D3
:1015E0003A0125E730E0B701A6018FE492E00E94BE
:1015F0003A0127E530E0B701A60186E592E00E94B6
:101600003A0125E430E0B701A6018DE592E00E94A1
:101610003A012DE530E0B701A60184E692E00E9490
:101620003A0127E530E0B701A6018BE692E00E947F
:101630003A012EE430E0B701A60182E792E00E9471
:101640003A0125E430E0B701A60189E792E00E9463
:101650003A012EE430E0B701A60180E892E00E9452
:101660003A0127E530E0B701A60187E892E00E9441
:101670003A0121E330E0B701A6018EE892E00E9432
:101680003A0127E530E0B701A60185E992E00E9422
:101690003A012DE530E0B701A6018CE992E00E9405
:1016A0003A0128E630E0B701A60183EA92E00E9401
:1016B0003A0125E730E0B701A6018AEA92E00E94EC
:1016C0003A0127E330E0B701A60181EB92E00E94E6
:1016D0003A0121E330E0B701A60188EB92E00E94D5
:1016E0003A0128E630E0B701A6018FEB92E00E94B4
:1016F0003A0123E830E0B701A60186EC92E00E94AF
:101700003A0128E630E0B701A6018DEC92E00E9494
:101710003A0123E830E0B701A60184ED92E00E948F
:101720003A0128E630E0B701A6018BED92E00E9475
:101730003A0121E330E0B701A60182EE92E00E9477
:101740003A012EE430E0B701A60189EE92E00E9452
:101750003A0127E530E0B701A60180EF92E00E9450
:101760003A012DE530E0B701A60187EF92E00E9433
:101770003A0128E630E0B701A6018EEF92E00E9420
:101780003A0127E530E0B701A60185E093E00E9429
:101790003A012DE530E0B701A6018CE093E00E940C
:1017A0003A0127E530E0B701A60183E193E00E940A
:1017B0003A012EE430E0B701A6018AE193E00E94ED
:1017C0003A0125E430E0B701A60181E293E00E94EE
:1017D0003A012EE430E0B701A60188E293E00E94CE
:1017E0003A0127E330E0B701A6018FE293E00E94BF
:1017F0003A0121E330E0B701A60186E393E00E94BD
:101800003A012EE430E0B701A6018DE393E00E9497
:101810003A012DE530E0B701A60184E493E00E948F
:101820003A0128E630E0B701A6018BE493E00E947C
:101830003A0125E730E0B701A60182E593E00E9476
:101840003A012DE530E0B701A60189E593E00E9459
:101850003A0121E330E0B701A60180E693E00E945F
:101860003A012EE330E0B701A60187E693E00E943B
:101870003A012EE430E0B701A6018EE693E00E9423
:101880003A012DE530E0B701A60185E793E00E941B
:101890003A0125E730E0B701A6018CE793E00E940A
:1018A0003A0128E630E0B701A60183E893E00E9400
:1018B0003A0121E330E0B701A6018AE893E00E94F3
:1018C0003A012EE430E0B701A60181E993E00E94DD
:1018D0003A0128E630E0B701A60188E993E00E94CA
:1018E0003A0125E730E0B701A6018FE993E00E94B5
:1018F0003A0127E530E0B701A60186EA93E00E94AD
:101900003A0125E430E0B701A6018DEA93E00E9498
:101910003A012DE530E0B701A60184EB93E00E9487
:101920003A0127E530E0B701A6018BEB93E00E9476
:101930003A012EE430E0B701A60182EC93E00E9468
:101940003A0125E430E0B701A60189EC93E00E945A
:101950003A012EE430E0B701A60180ED93E00E9449
:101960003A0127E530E0B701A60187ED93E00E9438
:101970003A0121E330E0B701A6018EED93E00E9429
:101980003A0122E530E0B701A60185EE93E00E941E
:101990003A0128E630E0B701A6018CEE93E00E9400
:1019A0003A012DE530E0B701A60183EF93E00E94F4
:1019B0003A0125E730E0B701A6018AEF93E00E94E3
:1019C0003A0128E630E0B701A60181E094E00E94E8
:1019D0003A012DE530E0B701A60188E094E00E94CD
:1019E0003A0128E630E0B701A6018FE094E00E94BA
:1019F0003A012EE430E0B701A60186E194E00E94AE
:101A00003A0127E530E0B701A6018DE194E00E949C
:101A10003A0125E430E0B701A60184E294E00E9497
:101A20003A012EE430E0B701A6018BE294E00E9477
:101A30003A0121E330E0B701A60182E394E00E947D
:101A40003A012EE430E0B701A60189E394E00E9458
:101A50003A0128E630E0B701A60180E494E00E9454
:101A60003A012DE530E0B701A60187E494E00E9439
:101A70003A0125E730E0B701A6018EE494E00E9428
:101A80003A0128E630E0B701A60185E594E00E941E
:101A90003A012DE530E040E050E463EB74E48CE57E
:101AA00094E00E943A01109363048092640490923F
:101AB0006504A0926604B0926704109269041092C3
:101AC000680421E330E040E050E062E873E48AE635
:101AD00094E00E943A012EE430E040E050E062E8F9
:101AE00073E481E794E00E943A0128E630E040E0A8
:101AF00050E062E873E488E794E00E943A012EE443
:101B000030E040E050E062E873E48FE794E00E9448
:101B10003A0128E630E040E050E062E873E486E80D
:101B200094E00E943A0127E530E040E050E062E8AE
:101B300073E48DE894E00E943A0121E330E040E054
:101B400050E062E873E484E994E00E943A012EE4F4
:101B500030E040E050E062E873E48BE994E00E94FA
:101B60003A0125E730E040E050E062E873E482EAC1
:101B700094E00E943A012EE430E040E050E062E858
:101B800073E489EA94E00E943A0125E730E040E0FE
:101B900050E062E873E480EB94E00E943A012EE4A6
:101BA00030E040E050E062E873E487EB94E00E94AC
:101BB0003A012AE330E040E050E062E873E48EEB63
:101BC00094E00E943A012EE430E040E050E062E808
:101BD00073E485EC94E00E943A0125E730E040E0B0
:101BE00050E062E873E48CEC94E00E943A012EE449
:101BF00030E040E050E062E873E483ED94E00E945E
:101C00003A0125E730E040E050E062E873E48AED15
:101C100094E00E943A012EE430E040E050E062E8B7
:101C200073E481EE94E00E943A012DE530E040E05B
:101C300050E062E873E488EE94E00E943A0127E500
:101C400030E040E050E062E873E48FEE94E00E9400
:101C50003A012EE430E040E050E062E873E486EFC1
:101C600094E00E943A0129E430E040E050E062E86C
:101C700073E48DEF94E00E943A0129E430E040E003
:101C800050E062E873E484E095E00E943A0127E5C1
:101C900030E040E050E062E873E48BE095E00E94C1
:101CA0003A0121E330E040E050E062E873E482E191
:101CB00095E00E943A0122E530E040E050E062E821
:101CC00073E489E195E00E943A0128E630E040E0C3
:101CD00050E062E873E480E295E00E943A012DE56D
:101CE00030E040E050E062E873E487E295E00E9473
:101CF0003A0125E730E040E050E062E873E48EE22C
:101D000095E00E943A0128E630E040E050E062E8C9
:101D100073E485E395E00E943A012DE530E040E070
:101D200050E062E873E48CE395E00E943A0128E613
:101D300030E040E050E062E873E483E495E00E9424
:101D40003A012EE430E040E050E062E873E48AE4D7
:101D500095E00E943A0127E530E040E050E062E87B
:101D600073E481E595E00E943A0125E430E040E02B
:101D700050E062E873E488E595E00E943A012EE4C1
:101D800030E040E050E062E873E48FE595E00E94C7
:101D90003A0121E330E040E050E062E873E486E697
:101DA00095E00E943A012EE430E040E050E062E825
:101DB00073E48DE695E00E943A0128E630E040E0C9
:101DC00050E062E873E484E795E00E943A012DE573
:101DD00030E040E050E062E873E48BE795E00E9479
:101DE0003A0125E730E040E050E062E873E482E841
:101DF00095E00E943A0128E630E040E050E062E8D9
:101E000073E489E895E00E943A012DE530E040E076
:101E100050E463EB74E480E995E00E943A0110938A
:101E200097058092980590929905A0929A05B09294
:101E30009B0510929D0510929C052FE130E040E03B
:101E400050EA63E475E48EE995E00E943A012FE1DF
:101E500030E040E050EA63EC74E485EA95E00E94EB
:101E60003A0123E230E040E050E463EB74E48CEAB2
:101E700095E00E943A0180E090E0A6EEB2E4809303
:101E80003A0190933B01A0933C01B0933D01A6E33E
:101E9000B1E08CEC9BE011969C938E9313961C9270
:101EA0001E921297E0E3F1E0B183A08321E030E0DD
:101EB0003383228388E090E095838483ACE2B1E0B1
:101EC0004CEC5BE011965C934E9313961C921E9221
:101ED0001297E6E2F1E0B183A083338322839583F6
:101EE0008483A2E2B1E04CEC5BE011965C934E93EC
:101EF00013961C921E921297ECE1F1E0B183A0833D
:101F00003383228395838483A8E1B1E043EB55E0DA
:101F100011965C934E9348EB50E013965C934E936E
:101F20001297E2E1F1E0B183A083338322839583AA
:101F30008483AEE0B1E04EE351E011965C934E93A2
:101F400041EA50E013965C934E931297E8E0F1E07B
:101F5000B183A0833383228395838483CF911F91A0
:101F60000F91FF90EF90DF90CF90BF90AF909F9038
:101F70008F9008954F925F926F927F928F929F926F
:101F8000AF92BF92CF92DF92EF92FF920F931F9387
:101F9000CF93DF9300D000D01F92CDB7DEB78B0177
:101FA00029013A0190910601891721F09F3F09F01C
:101FB0004DC205C0E8E6F0E024912D8384C08093F3
:101FC0000601E8E6F0E094919D839F3F09F43EC24C
:101FD000913009F44DC058F1923009F074C010925C
:101FE000B0001092B1009091B00092609093B00058
:101FF0009091B10091609093B100282F30E0F901E9
:10200000EF56FF4FE491F0E0EE0FFF1FEB55FF4F4F
:10201000459154915093CE0B4093CD0BF901E35869
:10202000FF4FE491E093CC0B92E09D830BC214BC74
:1020300015BC94B5926094BD95B5916095BD282F5F
:1020400030E0F901EF56FF4FE491F0E0EE0FFF1F93
:10205000EB55FF4F459154915093DC0B4093DB0BB4
:10206000F901E358FF4FE491E093DA0B1D82EAC1D6
:10207000109280001092810090918100986090935E
:10208000810090918100916090938100282F30E031
:10209000F901EF56FF4FE491F0E0EE0FFF1FEB5513
:1020A000FF4F459154915093D50B4093D40BF901B8
:1020B000E358FF4FE491E093D30B61E00E94EE13ED
:1020C00021E02D8389C02D8127FDC0C161E00E94E0
:1020D000EE138D818D7F09F07FC04801A12CB12CBA
:1020E00060E072E18AE790E0A50194010E947C140F
:1020F00029833A834B835C8369017A0181E0C81AA2
:10210000D108E108F1089FEFC916D104E104F104F8
:1021100009F008F44EC060E472E48FE090E0A5019D
:1021200094010E947C1469017A0181E0C81AD108E7
:10213000E108F1089D81923009F52FEFC216D10414
:10214000E104F10409F008F444C160E970ED83E0B2
:1021500090E0A50194010E947C1469017A0181E05C
:10216000C81AD108E108F1089FEFC916D104E104AB
:10217000F10411F008F0BAC083E027C02FEFC216B7
:10218000D104E104F104B9F0B0F068E478EE81E044
:1021900090E0A50194010E947C1469017A0181E01C
:1021A000C81AD108E108F1089D81992309F413C1E7
:1021B000DCC081E001C082E09D81911106C095B52F
:1021C000987F892B85BD44C085E09091B100987FB0
:1021D000892B8093B1003CC04801A12CB12C60E058
:1021E00072E18AE790E0A50194010E947C146901E4
:1021F0007A0181E0C81AD108E108F108C114D104BC
:1022000091E0E906F10488F068E478EE81E090E07E
:10221000A50194010E947C1469017A0181E0C81A29
:10222000D108E108F10883E001C081E09D8191308F
:1022300079F490918100987F892B809381004114DB
:1022400051046104710449F42FEF3FEFA9012CC040
:10225000411451046104710471F0D801AA0FBB1F2D
:10226000A30192010E949B1428EE33E040E050E06D
:102270000E945A1403C02FEF3FEFA9018D818130D6
:1022800099F0823019F18111E1C0C7BC2093DD0BB8
:102290003093DE0B4093DF0B5093E00B80916E0088
:1022A000826080936E00D2C0D0928900C092880074
:1022B0002093D60B3093D70B4093D80B5093D90B68
:1022C00080916F00826080936F00C0C0C092B300A5
:1022D0002093CF0B3093D00B4093D10B5093D20B64
:1022E00080917000826080937000B0C068E478EEE6
:1022F00081E090E0A50194010E947C1469017A01BB
:1023000091E0C91AD108E108F1082FEFC216D104F3
:10231000E104F10441F138F164E274EF80E090E00F
:10232000A50194010E947C1469017A0181E0C81A18
:10233000D108E108F1089FEFC916D104E104F104C6
:1023400009F008F441CF62E17AE780E090E0A5016E
:1023500094010E947C1469017A0181E0C81AD108B5
:10236000E108F10819C084E030CF2FEFC216D10484
:10237000E104F10409F008F463C062E17AE780E067
:1023800090E0A50194010E947C1469017A0191E01A
:10239000C91AD108E108F1088FEFC816D104E10489
:1023A000F104A9F0A0F089819A81AB81BC812AE077
:1023B000B595A795979587952A95D1F76C017D01DD
:1023C00021E0C21AD108E108F10887E0FECE86E0DC
:1023D000FCCE82E0FACE8FEFC816D104E104F104FE
:1023E00069F160F162E17AE780E090E0A501940193
:1023F0000E947C1469017A0191E0C91AD108E108B0
:10240000F1082FEFC216D104E104F104A9F0A0F005
:1024100089819A81AB81BC813AE0B595A795979562
:1024200087953A95D1F76C017D0121E0C21AD10858
:10243000E108F10885E0C3CE84E0C1CE83E0BFCEE1
:1024400084E0BACE61E00E94EE1347CE0F900F9069
:102450000F900F900F90DF91CF911F910F91FF90F0
:10246000EF90DF90CF90BF90AF909F908F907F9034
:102470006F905F904F900895813039F018F082305E
:1024800051F0089510926E00089580916F008D7F35
:1024900080936F000895809170008D7F809370000D
:1024A00081E08093B0008091B100887F8460809348
:1024B000B1001092B3000895CF93C82F8091060108
:1024C000C81307C0E8E6F0E084919FEF90930601FF
:1024D00001C08FEF0E943C1260E08C2FCF910C94D2
:1024E0002A141F920F920FB60F9211242F933F932D
:1024F0004F935F936F937F938F939F93AF93BF930C
:10250000EF93FF938091CF0B9091D00BA091D10BC3
:10251000B091D20B892B8A2B8B2B51F19091CC0B44
:10252000E091CD0BF091CE0B808189278083809143
:10253000CF0B9091D00BA091D10BB091D20B18166C
:1025400019061A061B06C4F48091CF0B9091D00B8C
:10255000A091D10BB091D20B0197A109B109809341
:10256000CF0B9093D00BA093D10BB093D20B04C0A0
:10257000809106010E945C12FF91EF91BF91AF9193
:102580009F918F917F916F915F914F913F912F918B
:102590000F900FBE0F901F90189508950E948A13F8
:1025A0000E94CD120E948301C0E0D0E00E949301FE
:1025B0002097E1F30E940000F9CF0C9421161F929E
:1025C0000F920FB60F9211242F933F938F939F93E7
:1025D000AF93BF938091E20B9091E30BA091E40B3A
:1025E000B091E50B3091E10B23E0230F2D3720F460
:1025F0000196A11DB11D05C026E8230F0296A11D5D
:10260000B11D2093E10B8093E20B9093E30BA09319
:10261000E40BB093E50B8091E60B9091E70BA09152
:10262000E80BB091E90B0196A11DB11D8093E60B5B
:102630009093E70BA093E80BB093E90BBF91AF9198
:102640009F918F913F912F910F900FBE0F901F90F0
:1026500018953FB7F8948091E60B9091E70BA09105
:10266000E80BB091E90B26B5A89B05C02F3F19F0E8
:102670000196A11DB11D3FBFBA2FA92F982F882702
:10268000820F911DA11DB11DBC01CD0142E0660F5D
:10269000771F881F991F4A95D1F708958F929F92AF
:1026A000AF92BF92CF92DF92EF92FF926B017C01CB
:1026B0000E9429134B015C01C114D104E104F1040F
:1026C00001F10E9459140E942913DC01CB018819E1
:1026D0009909AA09BB09883E9340A105B10560F399
:1026E00021E0C21AD108E108F10888EE880E83E0E3
:1026F000981EA11CB11CC114D104E104F10419F706
:10270000DBCFFF90EF90DF90CF90BF90AF909F9086
:102710008F900895789484B5826084BD84B581607B
:1027200084BD85B5826085BD85B5816085BDEEE6D9
:10273000F0E0808181608083E1E8F0E010828081B8
:1027400082608083808181608083E0E8F0E0808126
:1027500081608083E1EBF0E0808184608083E0EB46
:10276000F0E0808181608083EAE7F0E0808184602E
:10277000808380818260808380818160808380818A
:10278000806880831092C1000895833081F028F41E
:10279000813099F08230A1F008958730A9F0883017
:1027A000B9F08430D1F4809180008F7D03C0809196
:1027B00080008F7780938000089584B58F7702C062
:1027C00084B58F7D84BD08958091B0008F7703C05C
:1027D0008091B0008F7D8093B0000895CF93DF93F8
:1027E00090E0FC01E358FF4F2491FC01EF56FF4FAE
:1027F0008491882361F190E0880F991FFC01E155D5
:10280000FF4FC591D491FC01EB55FF4FA591B491B9
:10281000611109C09FB7F89488812095822388832D
:10282000EC912E230BC0623061F49FB7F89488813D
:10283000322F309583238883EC912E2B2C939FBFCE
:1028400006C08FB7F894E8812E2B28838FBFDF91C5
:10285000CF9108951F93CF93DF93282F30E0F90194
:10286000E759FF4F8491F901E358FF4FD491F901E3
:10287000EF56FF4FC491CC23C1F0162F81110E9457
:10288000C513EC2FF0E0EE0FFF1FEB55FF4FA591A6
:10289000B4919FB7F894111104C08C91D095D823AE
:1028A00002C0EC91DE2BDC939FBFDF91CF911F9193
:1028B00008950895A1E21A2EAA1BBB1BFD010DC0AD
:1028C000AA1FBB1FEE1FFF1FA217B307E407F507E0
:1028D00020F0A21BB30BE40BF50B661F771F881FBC
:1028E000991F1A9469F760957095809590959B0152
:1028F000AC01BD01CF010895052E97FB1EF4009495
:102900000E94931457FD07D00E945A1407FC03D06D
:102910004EF40C94931450954095309521953F4F6B
:102920004F4F5F4F089590958095709561957F4FBB
:102930008F4F9F4F08950E94AC14A59F900DB49F98
:10294000900DA49F800D911D11240895EE0FFF1F7F
:102950000590F491E02D0994A29FB001B39FC001AE
:10296000A39F700D811D1124911DB29F700D811DBB
:102970001124911D08950E94CF140C947A150E9481
:10298000731558F00E946C1540F029F45F3F29F050
:102990000C94631551110C94AE150C9469150E949A
:1029A0008B1568F39923B1F3552391F3951B550BC0
:1029B000BB27AA2762177307840738F09F5F5F4F12
:1029C000220F331F441FAA1FA9F335D00E2E3AF051
:1029D000E0E832D091505040E695001CCAF72BD069
:1029E000FE2F29D0660F771F881FBB1F26173707BA
:1029F0004807AB07B0E809F0BB0B802DBF01FF27EC
:102A000093585F4F3AF09E3F510578F00C94631550
:102A10000C94AE155F3FE4F3983ED4F3869577951A
:102A20006795B795F7959F5FC9F7880F911D9695A4
:102A3000879597F90895E1E0660F771F881FBB1F00
:102A4000621773078407BA0720F0621B730B840BAD
:102A5000BA0BEE1F88F7E09508950E94341568942C
:102A6000B1110C94AE1508950E94931588F09F57EC
:102A700098F0B92F9927B751B0F0E1F0660F771FA2
:102A8000881F991F1AF0BA95C9F714C0B13091F098
:102A90000E94AD15B1E008950C94AD15672F782F05
:102AA0008827B85F39F0B93FCCF38695779567955D
:102AB000B395D9F73EF490958095709561957F4FC9
:102AC0008F4F9F4F089597F99F6780E870E060E00F
:102AD00008959FEF80EC089500240A9416161706B7
:102AE00018060906089500240A94121613061406FF
:102AF00005060895092E0394000C11F4882352F062
:102B0000BB0F40F4BF2B11F460FF04C06F5F7F4F19
:102B10008F4F9F4F089557FD9058440F551F59F000
:102B20005F3F71F04795880F97FB991F61F09F3FBA
:102B300079F087950895121613061406551FF2CFE3
:102B40004695F1DF08C0161617061806991FF1CF33
:102B500086957105610508940895E894BB2766275A
:102B60007727CB0197F908950E94C7150C947A1521
:102B70000E946C1538F00E94731520F0952311F017
:102B80000C9463150C94691511240C94AE150E94D5
:102B90008B1570F3959FC1F3950F50E0551F629F01
:102BA000F001729FBB27F00DB11D639FAA27F00DA6
:102BB000B11DAA1F649F6627B00DA11D661F829FCD
:102BC0002227B00DA11D621F739FB00DA11D621FB2
:102BD000839FA00D611D221F749F3327A00D611DCF
:102BE000231F849F600D211D822F762F6A2F1124B1
:102BF0009F5750409AF0F1F088234AF0EE0FFF1FE4
:102C0000BB1F661F771F881F91505040A9F79E3F3A
:102C1000510580F00C9463150C94AE155F3FE4F3FE
:102C2000983ED4F3869577956795B795F795E79590
:102C30009F5FC1F7FE2B880F911D9695879597F999
:102C400008950F931F93CF93DF938230910510F473
:102C500082E090E0E091EC0BF091ED0B20E030E0B1
:102C6000A0E0B0E0309719F14081518102811381D9
:102C700048175907C8F08417950769F4109731F081
:102C800012960C93129713961C9327C00093EC0B8B
:102C90001093ED0B22C02115310519F0421753078F
:102CA00018F49A01BD01EF01DF01F801DBCF211516
:102CB0003105F9F0281B390B2430310580F48A8165
:102CC0009B816115710521F0FB019383828304C010
:102CD0009093ED0B8093EC0BFE01329644C0FE0105
:102CE000E20FF31F81939193225031093983288396
:102CF0003AC02091EA0B3091EB0B232B41F4209149
:102D00000201309103013093EB0B2093EA0B2091E9
:102D10000001309101012115310541F42DB73EB775
:102D20004091040150910501241B350BE091EA0B01
:102D3000F091EB0BE217F307A0F42E1B3F0B2817C3
:102D4000390778F0AC014E5F5F4F2417350748F024
:102D50004E0F5F1F5093EB0B4093EA0B81939193BF
:102D600002C0E0E0F0E0CF01DF91CF911F910F9121
:102D70000895CF93DF93009709F481C0FC01329747
:102D800013821282A091EC0BB091ED0B109781F49D
:102D900020813181820F931F2091EA0B3091EB0B40
:102DA0002817390751F5F093EB0BE093EA0B67C056
:102DB000ED0120E030E0CE17DF0740F44A815B816F
:102DC0009E0141155105F1F0EA01F5CFD383C2838D
:102DD00040815181840F951FC817D90759F4888104
:102DE0009981840F951F0296918380838A819B81AC
:102DF000938382832115310529F4F093ED0BE09341
:102E0000EC0B3DC0E901FB83EA8349915991C40F62
:102E1000D51FEC17FD0761F480819181840F951F08
:102E20000296E90199838883828193819B838A83B7
:102E3000E0E0F0E012968D919C911397009719F0C5
:102E4000FD01DC01F7CF8D919C9111979D012E5FC3
:102E50003F4F820F931F2091EA0B3091EB0B281705
:102E6000390769F4309729F41092ED0B1092EC0BAE
:102E700002C013821282B093EB0BA093EA0BDF9196
:082E8000CF910895F894FFCFF3
:082E88000000EE0B8000FF00CA
:00000001FF
